{
  "contractName": "Consumer",
  "abi": [
    {
      "inputs": [
        {
          "internalType": "address",
          "name": "_oracle",
          "type": "address"
        }
      ],
      "stateMutability": "nonpayable",
      "type": "constructor"
    },
    {
      "inputs": [],
      "name": "oracle",
      "outputs": [
        {
          "internalType": "contract IOracle",
          "name": "",
          "type": "address"
        }
      ],
      "stateMutability": "view",
      "type": "function",
      "constant": true
    },
    {
      "inputs": [],
      "name": "foo",
      "outputs": [],
      "stateMutability": "nonpayable",
      "type": "function"
    }
  ],
  "bytecode": "0x608060405234801561001057600080fd5b5060405161036f38038061036f8339818101604052602081101561003357600080fd5b8101908080519060200190929190505050806000806101000a81548173ffffffffffffffffffffffffffffffffffffffff021916908373ffffffffffffffffffffffffffffffffffffffff160217905550506102db806100946000396000f3fe608060405234801561001057600080fd5b50600436106100365760003560e01c80637dc0d1d01461003b578063c29855781461006f575b600080fd5b610043610079565b604051808273ffffffffffffffffffffffffffffffffffffffff16815260200191505060405180910390f35b61007761009d565b005b60008054906101000a900473ffffffffffffffffffffffffffffffffffffffff1681565b600060405160200180807f4254432f55534400000000000000000000000000000000000000000000000000815250600701905060405160208183030381529060405280519060200120905060008060008060009054906101000a900473ffffffffffffffffffffffffffffffffffffffff1673ffffffffffffffffffffffffffffffffffffffff166354f6127f856040518263ffffffff1660e01b81526004018082815260200191505060606040518083038186803b15801561015f57600080fd5b505afa158015610173573d6000803e3d6000fd5b505050506040513d606081101561018957600080fd5b8101908080519060200190929190805190602001909291908051906020019092919050505092509250925082610227576040517f08c379a000000000000000000000000000000000000000000000000000000000815260040180806020018281038252600f8152602001807f636f756c6420676574207072696365000000000000000000000000000000000081525060200191505060405180910390fd5b60784203821161029f576040517f08c379a000000000000000000000000000000000000000000000000000000000815260040180806020018281038252600d8152602001807f707269636520746f6f206f6c640000000000000000000000000000000000000081525060200191505060405180910390fd5b5050505056fea264697066735822122023fdd5c4c7f1d4e6b5d648328de81b32a2ae69f05121d8cc2ce1e74357ae2dff64736f6c63430007030033",
  "immutableReferences": {},
  "source": "pragma solidity ^0.7.3;\n\nimport './IOracle.sol';\n\ncontract Consumer {\n\n    IOracle public oracle;\n\n    constructor(address _oracle){\n        oracle=IOracle(_oracle);\n    }\n    function foo() external{\n        bytes32 key =keccak256(abi.encodePacked('BTC/USD'));\n        (bool result,uint timestamp,uint data)= oracle.getData(key);\n        require(result,\"could get price\");\n        require(timestamp > block.timestamp- 2 minutes,'price too old');\n         // do something with price\n\n    }\n}",
  "sourcePath": "/Users/darren/Documents/project/sol/defi_example/eattheblocks/defi-development-mastery/1-defi-building-blocks/6-oracles/contracts/Consumer.sol",
  "compiler": {
    "name": "solc",
    "version": "0.7.3+commit.9bfce1f6.Emscripten.clang"
  },
  "schemaVersion": "3.4.5",
  "updatedAt": "2022-04-10T06:27:14.038Z",
  "networkType": "ethereum",
  "devdoc": {
    "kind": "dev",
    "methods": {},
    "version": 1
  },
  "userdoc": {
    "kind": "user",
    "methods": {},
    "version": 1
  }
}