{
  "contractName": "NFT",
  "abi": [
    {
      "inputs": [
        {
          "internalType": "string",
          "name": "_name",
          "type": "string"
        },
        {
          "internalType": "string",
          "name": "_symbol",
          "type": "string"
        },
        {
          "internalType": "string",
          "name": "_initBaseURI",
          "type": "string"
        }
      ],
      "stateMutability": "nonpayable",
      "type": "constructor"
    },
    {
      "anonymous": false,
      "inputs": [
        {
          "indexed": true,
          "internalType": "address",
          "name": "owner",
          "type": "address"
        },
        {
          "indexed": true,
          "internalType": "address",
          "name": "approved",
          "type": "address"
        },
        {
          "indexed": true,
          "internalType": "uint256",
          "name": "tokenId",
          "type": "uint256"
        }
      ],
      "name": "Approval",
      "type": "event"
    },
    {
      "anonymous": false,
      "inputs": [
        {
          "indexed": true,
          "internalType": "address",
          "name": "owner",
          "type": "address"
        },
        {
          "indexed": true,
          "internalType": "address",
          "name": "operator",
          "type": "address"
        },
        {
          "indexed": false,
          "internalType": "bool",
          "name": "approved",
          "type": "bool"
        }
      ],
      "name": "ApprovalForAll",
      "type": "event"
    },
    {
      "anonymous": false,
      "inputs": [
        {
          "indexed": true,
          "internalType": "address",
          "name": "previousOwner",
          "type": "address"
        },
        {
          "indexed": true,
          "internalType": "address",
          "name": "newOwner",
          "type": "address"
        }
      ],
      "name": "OwnershipTransferred",
      "type": "event"
    },
    {
      "anonymous": false,
      "inputs": [
        {
          "indexed": true,
          "internalType": "address",
          "name": "from",
          "type": "address"
        },
        {
          "indexed": true,
          "internalType": "address",
          "name": "to",
          "type": "address"
        },
        {
          "indexed": true,
          "internalType": "uint256",
          "name": "tokenId",
          "type": "uint256"
        }
      ],
      "name": "Transfer",
      "type": "event"
    },
    {
      "inputs": [
        {
          "internalType": "address",
          "name": "to",
          "type": "address"
        },
        {
          "internalType": "uint256",
          "name": "tokenId",
          "type": "uint256"
        }
      ],
      "name": "approve",
      "outputs": [],
      "stateMutability": "nonpayable",
      "type": "function"
    },
    {
      "inputs": [
        {
          "internalType": "address",
          "name": "owner",
          "type": "address"
        }
      ],
      "name": "balanceOf",
      "outputs": [
        {
          "internalType": "uint256",
          "name": "",
          "type": "uint256"
        }
      ],
      "stateMutability": "view",
      "type": "function",
      "constant": true
    },
    {
      "inputs": [],
      "name": "baseExtension",
      "outputs": [
        {
          "internalType": "string",
          "name": "",
          "type": "string"
        }
      ],
      "stateMutability": "view",
      "type": "function",
      "constant": true
    },
    {
      "inputs": [],
      "name": "cost",
      "outputs": [
        {
          "internalType": "uint256",
          "name": "",
          "type": "uint256"
        }
      ],
      "stateMutability": "view",
      "type": "function",
      "constant": true
    },
    {
      "inputs": [
        {
          "internalType": "uint256",
          "name": "tokenId",
          "type": "uint256"
        }
      ],
      "name": "getApproved",
      "outputs": [
        {
          "internalType": "address",
          "name": "",
          "type": "address"
        }
      ],
      "stateMutability": "view",
      "type": "function",
      "constant": true
    },
    {
      "inputs": [
        {
          "internalType": "address",
          "name": "owner",
          "type": "address"
        },
        {
          "internalType": "address",
          "name": "operator",
          "type": "address"
        }
      ],
      "name": "isApprovedForAll",
      "outputs": [
        {
          "internalType": "bool",
          "name": "",
          "type": "bool"
        }
      ],
      "stateMutability": "view",
      "type": "function",
      "constant": true
    },
    {
      "inputs": [],
      "name": "maxSupply",
      "outputs": [
        {
          "internalType": "uint256",
          "name": "",
          "type": "uint256"
        }
      ],
      "stateMutability": "view",
      "type": "function",
      "constant": true
    },
    {
      "inputs": [],
      "name": "name",
      "outputs": [
        {
          "internalType": "string",
          "name": "",
          "type": "string"
        }
      ],
      "stateMutability": "view",
      "type": "function",
      "constant": true
    },
    {
      "inputs": [],
      "name": "owner",
      "outputs": [
        {
          "internalType": "address",
          "name": "",
          "type": "address"
        }
      ],
      "stateMutability": "view",
      "type": "function",
      "constant": true
    },
    {
      "inputs": [
        {
          "internalType": "uint256",
          "name": "tokenId",
          "type": "uint256"
        }
      ],
      "name": "ownerOf",
      "outputs": [
        {
          "internalType": "address",
          "name": "",
          "type": "address"
        }
      ],
      "stateMutability": "view",
      "type": "function",
      "constant": true
    },
    {
      "inputs": [],
      "name": "renounceOwnership",
      "outputs": [],
      "stateMutability": "nonpayable",
      "type": "function"
    },
    {
      "inputs": [
        {
          "internalType": "address",
          "name": "from",
          "type": "address"
        },
        {
          "internalType": "address",
          "name": "to",
          "type": "address"
        },
        {
          "internalType": "uint256",
          "name": "tokenId",
          "type": "uint256"
        }
      ],
      "name": "safeTransferFrom",
      "outputs": [],
      "stateMutability": "nonpayable",
      "type": "function"
    },
    {
      "inputs": [
        {
          "internalType": "address",
          "name": "from",
          "type": "address"
        },
        {
          "internalType": "address",
          "name": "to",
          "type": "address"
        },
        {
          "internalType": "uint256",
          "name": "tokenId",
          "type": "uint256"
        },
        {
          "internalType": "bytes",
          "name": "_data",
          "type": "bytes"
        }
      ],
      "name": "safeTransferFrom",
      "outputs": [],
      "stateMutability": "nonpayable",
      "type": "function"
    },
    {
      "inputs": [
        {
          "internalType": "address",
          "name": "operator",
          "type": "address"
        },
        {
          "internalType": "bool",
          "name": "approved",
          "type": "bool"
        }
      ],
      "name": "setApprovalForAll",
      "outputs": [],
      "stateMutability": "nonpayable",
      "type": "function"
    },
    {
      "inputs": [
        {
          "internalType": "bytes4",
          "name": "interfaceId",
          "type": "bytes4"
        }
      ],
      "name": "supportsInterface",
      "outputs": [
        {
          "internalType": "bool",
          "name": "",
          "type": "bool"
        }
      ],
      "stateMutability": "view",
      "type": "function",
      "constant": true
    },
    {
      "inputs": [],
      "name": "symbol",
      "outputs": [
        {
          "internalType": "string",
          "name": "",
          "type": "string"
        }
      ],
      "stateMutability": "view",
      "type": "function",
      "constant": true
    },
    {
      "inputs": [
        {
          "internalType": "uint256",
          "name": "index",
          "type": "uint256"
        }
      ],
      "name": "tokenByIndex",
      "outputs": [
        {
          "internalType": "uint256",
          "name": "",
          "type": "uint256"
        }
      ],
      "stateMutability": "view",
      "type": "function",
      "constant": true
    },
    {
      "inputs": [
        {
          "internalType": "address",
          "name": "owner",
          "type": "address"
        },
        {
          "internalType": "uint256",
          "name": "index",
          "type": "uint256"
        }
      ],
      "name": "tokenOfOwnerByIndex",
      "outputs": [
        {
          "internalType": "uint256",
          "name": "",
          "type": "uint256"
        }
      ],
      "stateMutability": "view",
      "type": "function",
      "constant": true
    },
    {
      "inputs": [],
      "name": "totalSupply",
      "outputs": [
        {
          "internalType": "uint256",
          "name": "",
          "type": "uint256"
        }
      ],
      "stateMutability": "view",
      "type": "function",
      "constant": true
    },
    {
      "inputs": [
        {
          "internalType": "address",
          "name": "from",
          "type": "address"
        },
        {
          "internalType": "address",
          "name": "to",
          "type": "address"
        },
        {
          "internalType": "uint256",
          "name": "tokenId",
          "type": "uint256"
        }
      ],
      "name": "transferFrom",
      "outputs": [],
      "stateMutability": "nonpayable",
      "type": "function"
    },
    {
      "inputs": [
        {
          "internalType": "address",
          "name": "newOwner",
          "type": "address"
        }
      ],
      "name": "transferOwnership",
      "outputs": [],
      "stateMutability": "nonpayable",
      "type": "function"
    },
    {
      "inputs": [],
      "name": "mint",
      "outputs": [],
      "stateMutability": "payable",
      "type": "function",
      "payable": true
    },
    {
      "inputs": [
        {
          "internalType": "uint256",
          "name": "tokenId",
          "type": "uint256"
        }
      ],
      "name": "tokenURI",
      "outputs": [
        {
          "internalType": "string",
          "name": "",
          "type": "string"
        }
      ],
      "stateMutability": "view",
      "type": "function",
      "constant": true
    },
    {
      "inputs": [
        {
          "internalType": "string",
          "name": "_newBaseURI",
          "type": "string"
        }
      ],
      "name": "setBaseURI",
      "outputs": [],
      "stateMutability": "nonpayable",
      "type": "function"
    }
  ],
  "bytecode": "0x6080604052670de0b6b3a7640000600b556014600c556040518060400160405280600581526020017f2e6a736f6e000000000000000000000000000000000000000000000000000000815250600e908051906020019062000062929190620002a9565b503480156200007057600080fd5b5060405162003f5538038062003f558339818101604052810190620000969190620004f6565b82828160009080519060200190620000b0929190620002a9565b508060019080519060200190620000c9929190620002a9565b505050620000ec620000e06200010660201b60201c565b6200010e60201b60201c565b620000fd81620001d460201b60201c565b50505062000697565b600033905090565b6000600a60009054906101000a900473ffffffffffffffffffffffffffffffffffffffff16905081600a60006101000a81548173ffffffffffffffffffffffffffffffffffffffff021916908373ffffffffffffffffffffffffffffffffffffffff1602179055508173ffffffffffffffffffffffffffffffffffffffff168173ffffffffffffffffffffffffffffffffffffffff167f8be0079c531659141344cd1fd0a4f28419497f9722a3daafe3b4186f6b6457e060405160405180910390a35050565b620001e46200010660201b60201c565b73ffffffffffffffffffffffffffffffffffffffff166200020a6200027f60201b60201c565b73ffffffffffffffffffffffffffffffffffffffff161462000263576040517f08c379a00000000000000000000000000000000000000000000000000000000081526004016200025a9062000610565b60405180910390fd5b80600d90805190602001906200027b929190620002a9565b5050565b6000600a60009054906101000a900473ffffffffffffffffffffffffffffffffffffffff16905090565b828054620002b79062000661565b90600052602060002090601f016020900481019282620002db576000855562000327565b82601f10620002f657805160ff191683800117855562000327565b8280016001018555821562000327579182015b828111156200032657825182559160200191906001019062000309565b5b5090506200033691906200033a565b5090565b5b80821115620003555760008160009055506001016200033b565b5090565b6000604051905090565b600080fd5b600080fd5b600080fd5b600080fd5b6000601f19601f8301169050919050565b7f4e487b7100000000000000000000000000000000000000000000000000000000600052604160045260246000fd5b620003c28262000377565b810181811067ffffffffffffffff82111715620003e457620003e362000388565b5b80604052505050565b6000620003f962000359565b9050620004078282620003b7565b919050565b600067ffffffffffffffff8211156200042a576200042962000388565b5b620004358262000377565b9050602081019050919050565b60005b838110156200046257808201518184015260208101905062000445565b8381111562000472576000848401525b50505050565b60006200048f62000489846200040c565b620003ed565b905082815260208101848484011115620004ae57620004ad62000372565b5b620004bb84828562000442565b509392505050565b600082601f830112620004db57620004da6200036d565b5b8151620004ed84826020860162000478565b91505092915050565b60008060006060848603121562000512576200051162000363565b5b600084015167ffffffffffffffff81111562000533576200053262000368565b5b6200054186828701620004c3565b935050602084015167ffffffffffffffff81111562000565576200056462000368565b5b6200057386828701620004c3565b925050604084015167ffffffffffffffff81111562000597576200059662000368565b5b620005a586828701620004c3565b9150509250925092565b600082825260208201905092915050565b7f4f776e61626c653a2063616c6c6572206973206e6f7420746865206f776e6572600082015250565b6000620005f8602083620005af565b91506200060582620005c0565b602082019050919050565b600060208201905081810360008301526200062b81620005e9565b9050919050565b7f4e487b7100000000000000000000000000000000000000000000000000000000600052602260045260246000fd5b600060028204905060018216806200067a57607f821691505b6020821081141562000691576200069062000632565b5b50919050565b6138ae80620006a76000396000f3fe60806040526004361061014b5760003560e01c80636352211e116100b6578063b88d4fde1161006f578063b88d4fde14610483578063c6682862146104ac578063c87b56dd146104d7578063d5abeb0114610514578063e985e9c51461053f578063f2fde38b1461057c5761014b565b80636352211e1461037357806370a08231146103b0578063715018a6146103ed5780638da5cb5b1461040457806395d89b411461042f578063a22cb4651461045a5761014b565b806318160ddd1161010857806318160ddd1461025357806323b872dd1461027e5780632f745c59146102a757806342842e0e146102e45780634f6ccce71461030d57806355f804b31461034a5761014b565b806301ffc9a71461015057806306fdde031461018d578063081812fc146101b8578063095ea7b3146101f55780631249c58b1461021e57806313faede614610228575b600080fd5b34801561015c57600080fd5b506101776004803603810190610172919061247b565b6105a5565b60405161018491906124c3565b60405180910390f35b34801561019957600080fd5b506101a261061f565b6040516101af9190612577565b60405180910390f35b3480156101c457600080fd5b506101df60048036038101906101da91906125cf565b6106b1565b6040516101ec919061263d565b60405180910390f35b34801561020157600080fd5b5061021c60048036038101906102179190612684565b610736565b005b61022661084e565b005b34801561023457600080fd5b5061023d6108cc565b60405161024a91906126d3565b60405180910390f35b34801561025f57600080fd5b506102686108d2565b60405161027591906126d3565b60405180910390f35b34801561028a57600080fd5b506102a560048036038101906102a091906126ee565b6108df565b005b3480156102b357600080fd5b506102ce60048036038101906102c99190612684565b61093f565b6040516102db91906126d3565b60405180910390f35b3480156102f057600080fd5b5061030b600480360381019061030691906126ee565b6109e4565b005b34801561031957600080fd5b50610334600480360381019061032f91906125cf565b610a04565b60405161034191906126d3565b60405180910390f35b34801561035657600080fd5b50610371600480360381019061036c9190612876565b610a75565b005b34801561037f57600080fd5b5061039a600480360381019061039591906125cf565b610b0b565b6040516103a7919061263d565b60405180910390f35b3480156103bc57600080fd5b506103d760048036038101906103d291906128bf565b610bbd565b6040516103e491906126d3565b60405180910390f35b3480156103f957600080fd5b50610402610c75565b005b34801561041057600080fd5b50610419610cfd565b604051610426919061263d565b60405180910390f35b34801561043b57600080fd5b50610444610d27565b6040516104519190612577565b60405180910390f35b34801561046657600080fd5b50610481600480360381019061047c9190612918565b610db9565b005b34801561048f57600080fd5b506104aa60048036038101906104a591906129f9565b610dcf565b005b3480156104b857600080fd5b506104c1610e31565b6040516104ce9190612577565b60405180910390f35b3480156104e357600080fd5b506104fe60048036038101906104f991906125cf565b610ebf565b60405161050b9190612577565b60405180910390f35b34801561052057600080fd5b50610529610f69565b60405161053691906126d3565b60405180910390f35b34801561054b57600080fd5b5061056660048036038101906105619190612a7c565b610f6f565b60405161057391906124c3565b60405180910390f35b34801561058857600080fd5b506105a3600480360381019061059e91906128bf565b611003565b005b60007f780e9d63000000000000000000000000000000000000000000000000000000007bffffffffffffffffffffffffffffffffffffffffffffffffffffffff1916827bffffffffffffffffffffffffffffffffffffffffffffffffffffffff191614806106185750610617826110fb565b5b9050919050565b60606000805461062e90612aeb565b80601f016020809104026020016040519081016040528092919081815260200182805461065a90612aeb565b80156106a75780601f1061067c576101008083540402835291602001916106a7565b820191906000526020600020905b81548152906001019060200180831161068a57829003601f168201915b5050505050905090565b60006106bc826111dd565b6106fb576040517f08c379a00000000000000000000000000000000000000000000000000000000081526004016106f290612b8f565b60405180910390fd5b6004600083815260200190815260200160002060009054906101000a900473ffffffffffffffffffffffffffffffffffffffff169050919050565b600061074182610b0b565b90508073ffffffffffffffffffffffffffffffffffffffff168373ffffffffffffffffffffffffffffffffffffffff1614156107b2576040517f08c379a00000000000000000000000000000000000000000000000000000000081526004016107a990612c21565b60405180910390fd5b8073ffffffffffffffffffffffffffffffffffffffff166107d1611249565b73ffffffffffffffffffffffffffffffffffffffff16148061080057506107ff816107fa611249565b610f6f565b5b61083f576040517f08c379a000000000000000000000000000000000000000000000000000000000815260040161083690612cb3565b60405180910390fd5b6108498383611251565b505050565b60006108586108d2565b9050600c5481111561086957600080fd5b610871610cfd565b73ffffffffffffffffffffffffffffffffffffffff163373ffffffffffffffffffffffffffffffffffffffff16146108b357600b543410156108b257600080fd5b5b6108c9336001836108c49190612d02565b61130a565b50565b600b5481565b6000600880549050905090565b6108f06108ea611249565b82611328565b61092f576040517f08c379a000000000000000000000000000000000000000000000000000000000815260040161092690612dca565b60405180910390fd5b61093a838383611406565b505050565b600061094a83610bbd565b821061098b576040517f08c379a000000000000000000000000000000000000000000000000000000000815260040161098290612e5c565b60405180910390fd5b600660008473ffffffffffffffffffffffffffffffffffffffff1673ffffffffffffffffffffffffffffffffffffffff168152602001908152602001600020600083815260200190815260200160002054905092915050565b6109ff83838360405180602001604052806000815250610dcf565b505050565b6000610a0e6108d2565b8210610a4f576040517f08c379a0000000000000000000000000000000000000000000000000000000008152600401610a4690612eee565b60405180910390fd5b60088281548110610a6357610a62612f0e565b5b90600052602060002001549050919050565b610a7d611249565b73ffffffffffffffffffffffffffffffffffffffff16610a9b610cfd565b73ffffffffffffffffffffffffffffffffffffffff1614610af1576040517f08c379a0000000000000000000000000000000000000000000000000000000008152600401610ae890612f89565b60405180910390fd5b80600d9080519060200190610b0792919061236c565b5050565b6000806002600084815260200190815260200160002060009054906101000a900473ffffffffffffffffffffffffffffffffffffffff169050600073ffffffffffffffffffffffffffffffffffffffff168173ffffffffffffffffffffffffffffffffffffffff161415610bb4576040517f08c379a0000000000000000000000000000000000000000000000000000000008152600401610bab9061301b565b60405180910390fd5b80915050919050565b60008073ffffffffffffffffffffffffffffffffffffffff168273ffffffffffffffffffffffffffffffffffffffff161415610c2e576040517f08c379a0000000000000000000000000000000000000000000000000000000008152600401610c25906130ad565b60405180910390fd5b600360008373ffffffffffffffffffffffffffffffffffffffff1673ffffffffffffffffffffffffffffffffffffffff168152602001908152602001600020549050919050565b610c7d611249565b73ffffffffffffffffffffffffffffffffffffffff16610c9b610cfd565b73ffffffffffffffffffffffffffffffffffffffff1614610cf1576040517f08c379a0000000000000000000000000000000000000000000000000000000008152600401610ce890612f89565b60405180910390fd5b610cfb600061166d565b565b6000600a60009054906101000a900473ffffffffffffffffffffffffffffffffffffffff16905090565b606060018054610d3690612aeb565b80601f0160208091040260200160405190810160405280929190818152602001828054610d6290612aeb565b8015610daf5780601f10610d8457610100808354040283529160200191610daf565b820191906000526020600020905b815481529060010190602001808311610d9257829003601f168201915b5050505050905090565b610dcb610dc4611249565b8383611733565b5050565b610de0610dda611249565b83611328565b610e1f576040517f08c379a0000000000000000000000000000000000000000000000000000000008152600401610e1690612dca565b60405180910390fd5b610e2b848484846118a0565b50505050565b600e8054610e3e90612aeb565b80601f0160208091040260200160405190810160405280929190818152602001828054610e6a90612aeb565b8015610eb75780601f10610e8c57610100808354040283529160200191610eb7565b820191906000526020600020905b815481529060010190602001808311610e9a57829003601f168201915b505050505081565b6060610eca826111dd565b610f09576040517f08c379a0000000000000000000000000000000000000000000000000000000008152600401610f0090613119565b60405180910390fd5b6000610f136118fc565b90506000815111610f335760405180602001604052806000815250610f61565b80610f3d8461198e565b600e604051602001610f5193929190613209565b6040516020818303038152906040525b915050919050565b600c5481565b6000600560008473ffffffffffffffffffffffffffffffffffffffff1673ffffffffffffffffffffffffffffffffffffffff16815260200190815260200160002060008373ffffffffffffffffffffffffffffffffffffffff1673ffffffffffffffffffffffffffffffffffffffff16815260200190815260200160002060009054906101000a900460ff16905092915050565b61100b611249565b73ffffffffffffffffffffffffffffffffffffffff16611029610cfd565b73ffffffffffffffffffffffffffffffffffffffff161461107f576040517f08c379a000000000000000000000000000000000000000000000000000000000815260040161107690612f89565b60405180910390fd5b600073ffffffffffffffffffffffffffffffffffffffff168173ffffffffffffffffffffffffffffffffffffffff1614156110ef576040517f08c379a00000000000000000000000000000000000000000000000000000000081526004016110e6906132ac565b60405180910390fd5b6110f88161166d565b50565b60007f80ac58cd000000000000000000000000000000000000000000000000000000007bffffffffffffffffffffffffffffffffffffffffffffffffffffffff1916827bffffffffffffffffffffffffffffffffffffffffffffffffffffffff191614806111c657507f5b5e139f000000000000000000000000000000000000000000000000000000007bffffffffffffffffffffffffffffffffffffffffffffffffffffffff1916827bffffffffffffffffffffffffffffffffffffffffffffffffffffffff1916145b806111d657506111d582611aef565b5b9050919050565b60008073ffffffffffffffffffffffffffffffffffffffff166002600084815260200190815260200160002060009054906101000a900473ffffffffffffffffffffffffffffffffffffffff1673ffffffffffffffffffffffffffffffffffffffff1614159050919050565b600033905090565b816004600083815260200190815260200160002060006101000a81548173ffffffffffffffffffffffffffffffffffffffff021916908373ffffffffffffffffffffffffffffffffffffffff160217905550808273ffffffffffffffffffffffffffffffffffffffff166112c483610b0b565b73ffffffffffffffffffffffffffffffffffffffff167f8c5be1e5ebec7d5bd14f71427d1e84f3dd0314c0f7b2291e5b200ac8c7c3b92560405160405180910390a45050565b611324828260405180602001604052806000815250611b59565b5050565b6000611333826111dd565b611372576040517f08c379a00000000000000000000000000000000000000000000000000000000081526004016113699061333e565b60405180910390fd5b600061137d83610b0b565b90508073ffffffffffffffffffffffffffffffffffffffff168473ffffffffffffffffffffffffffffffffffffffff1614806113ec57508373ffffffffffffffffffffffffffffffffffffffff166113d4846106b1565b73ffffffffffffffffffffffffffffffffffffffff16145b806113fd57506113fc8185610f6f565b5b91505092915050565b8273ffffffffffffffffffffffffffffffffffffffff1661142682610b0b565b73ffffffffffffffffffffffffffffffffffffffff161461147c576040517f08c379a0000000000000000000000000000000000000000000000000000000008152600401611473906133d0565b60405180910390fd5b600073ffffffffffffffffffffffffffffffffffffffff168273ffffffffffffffffffffffffffffffffffffffff1614156114ec576040517f08c379a00000000000000000000000000000000000000000000000000000000081526004016114e390613462565b60405180910390fd5b6114f7838383611bb4565b611502600082611251565b6001600360008573ffffffffffffffffffffffffffffffffffffffff1673ffffffffffffffffffffffffffffffffffffffff16815260200190815260200160002060008282546115529190613482565b925050819055506001600360008473ffffffffffffffffffffffffffffffffffffffff1673ffffffffffffffffffffffffffffffffffffffff16815260200190815260200160002060008282546115a99190612d02565b92505081905550816002600083815260200190815260200160002060006101000a81548173ffffffffffffffffffffffffffffffffffffffff021916908373ffffffffffffffffffffffffffffffffffffffff160217905550808273ffffffffffffffffffffffffffffffffffffffff168473ffffffffffffffffffffffffffffffffffffffff167fddf252ad1be2c89b69c2b068fc378daa952ba7f163c4a11628f55a4df523b3ef60405160405180910390a4611668838383611cc8565b505050565b6000600a60009054906101000a900473ffffffffffffffffffffffffffffffffffffffff16905081600a60006101000a81548173ffffffffffffffffffffffffffffffffffffffff021916908373ffffffffffffffffffffffffffffffffffffffff1602179055508173ffffffffffffffffffffffffffffffffffffffff168173ffffffffffffffffffffffffffffffffffffffff167f8be0079c531659141344cd1fd0a4f28419497f9722a3daafe3b4186f6b6457e060405160405180910390a35050565b8173ffffffffffffffffffffffffffffffffffffffff168373ffffffffffffffffffffffffffffffffffffffff1614156117a2576040517f08c379a000000000000000000000000000000000000000000000000000000000815260040161179990613502565b60405180910390fd5b80600560008573ffffffffffffffffffffffffffffffffffffffff1673ffffffffffffffffffffffffffffffffffffffff16815260200190815260200160002060008473ffffffffffffffffffffffffffffffffffffffff1673ffffffffffffffffffffffffffffffffffffffff16815260200190815260200160002060006101000a81548160ff0219169083151502179055508173ffffffffffffffffffffffffffffffffffffffff168373ffffffffffffffffffffffffffffffffffffffff167f17307eab39ab6107e8899845ad3d59bd9653f200f220920489ca2b5937696c318360405161189391906124c3565b60405180910390a3505050565b6118ab848484611406565b6118b784848484611ccd565b6118f6576040517f08c379a00000000000000000000000000000000000000000000000000000000081526004016118ed90613594565b60405180910390fd5b50505050565b6060600d805461190b90612aeb565b80601f016020809104026020016040519081016040528092919081815260200182805461193790612aeb565b80156119845780601f1061195957610100808354040283529160200191611984565b820191906000526020600020905b81548152906001019060200180831161196757829003601f168201915b5050505050905090565b606060008214156119d6576040518060400160405280600181526020017f30000000000000000000000000000000000000000000000000000000000000008152509050611aea565b600082905060005b60008214611a085780806119f1906135b4565b915050600a82611a01919061362c565b91506119de565b60008167ffffffffffffffff811115611a2457611a2361274b565b5b6040519080825280601f01601f191660200182016040528015611a565781602001600182028036833780820191505090505b5090505b60008514611ae357600182611a6f9190613482565b9150600a85611a7e919061365d565b6030611a8a9190612d02565b60f81b818381518110611aa057611a9f612f0e565b5b60200101907effffffffffffffffffffffffffffffffffffffffffffffffffffffffffffff1916908160001a905350600a85611adc919061362c565b9450611a5a565b8093505050505b919050565b60007f01ffc9a7000000000000000000000000000000000000000000000000000000007bffffffffffffffffffffffffffffffffffffffffffffffffffffffff1916827bffffffffffffffffffffffffffffffffffffffffffffffffffffffff1916149050919050565b611b638383611e64565b611b706000848484611ccd565b611baf576040517f08c379a0000000000000000000000000000000000000000000000000000000008152600401611ba690613594565b60405180910390fd5b505050565b611bbf83838361203e565b600073ffffffffffffffffffffffffffffffffffffffff168373ffffffffffffffffffffffffffffffffffffffff161415611c0257611bfd81612043565b611c41565b8173ffffffffffffffffffffffffffffffffffffffff168373ffffffffffffffffffffffffffffffffffffffff1614611c4057611c3f838261208c565b5b5b600073ffffffffffffffffffffffffffffffffffffffff168273ffffffffffffffffffffffffffffffffffffffff161415611c8457611c7f816121f9565b611cc3565b8273ffffffffffffffffffffffffffffffffffffffff168273ffffffffffffffffffffffffffffffffffffffff1614611cc257611cc182826122ca565b5b5b505050565b505050565b6000611cee8473ffffffffffffffffffffffffffffffffffffffff16612349565b15611e57578373ffffffffffffffffffffffffffffffffffffffff1663150b7a02611d17611249565b8786866040518563ffffffff1660e01b8152600401611d3994939291906136e3565b602060405180830381600087803b158015611d5357600080fd5b505af1925050508015611d8457506040513d601f19601f82011682018060405250810190611d819190613744565b60015b611e07573d8060008114611db4576040519150601f19603f3d011682016040523d82523d6000602084013e611db9565b606091505b50600081511415611dff576040517f08c379a0000000000000000000000000000000000000000000000000000000008152600401611df690613594565b60405180910390fd5b805181602001fd5b63150b7a0260e01b7bffffffffffffffffffffffffffffffffffffffffffffffffffffffff1916817bffffffffffffffffffffffffffffffffffffffffffffffffffffffff191614915050611e5c565b600190505b949350505050565b600073ffffffffffffffffffffffffffffffffffffffff168273ffffffffffffffffffffffffffffffffffffffff161415611ed4576040517f08c379a0000000000000000000000000000000000000000000000000000000008152600401611ecb906137bd565b60405180910390fd5b611edd816111dd565b15611f1d576040517f08c379a0000000000000000000000000000000000000000000000000000000008152600401611f1490613829565b60405180910390fd5b611f2960008383611bb4565b6001600360008473ffffffffffffffffffffffffffffffffffffffff1673ffffffffffffffffffffffffffffffffffffffff1681526020019081526020016000206000828254611f799190612d02565b92505081905550816002600083815260200190815260200160002060006101000a81548173ffffffffffffffffffffffffffffffffffffffff021916908373ffffffffffffffffffffffffffffffffffffffff160217905550808273ffffffffffffffffffffffffffffffffffffffff16600073ffffffffffffffffffffffffffffffffffffffff167fddf252ad1be2c89b69c2b068fc378daa952ba7f163c4a11628f55a4df523b3ef60405160405180910390a461203a60008383611cc8565b5050565b505050565b6008805490506009600083815260200190815260200160002081905550600881908060018154018082558091505060019003906000526020600020016000909190919091505550565b6000600161209984610bbd565b6120a39190613482565b9050600060076000848152602001908152602001600020549050818114612188576000600660008673ffffffffffffffffffffffffffffffffffffffff1673ffffffffffffffffffffffffffffffffffffffff168152602001908152602001600020600084815260200190815260200160002054905080600660008773ffffffffffffffffffffffffffffffffffffffff1673ffffffffffffffffffffffffffffffffffffffff168152602001908152602001600020600084815260200190815260200160002081905550816007600083815260200190815260200160002081905550505b6007600084815260200190815260200160002060009055600660008573ffffffffffffffffffffffffffffffffffffffff1673ffffffffffffffffffffffffffffffffffffffff16815260200190815260200160002060008381526020019081526020016000206000905550505050565b6000600160088054905061220d9190613482565b905060006009600084815260200190815260200160002054905060006008838154811061223d5761223c612f0e565b5b90600052602060002001549050806008838154811061225f5761225e612f0e565b5b9060005260206000200181905550816009600083815260200190815260200160002081905550600960008581526020019081526020016000206000905560088054806122ae576122ad613849565b5b6001900381819060005260206000200160009055905550505050565b60006122d583610bbd565b905081600660008573ffffffffffffffffffffffffffffffffffffffff1673ffffffffffffffffffffffffffffffffffffffff168152602001908152602001600020600083815260200190815260200160002081905550806007600084815260200190815260200160002081905550505050565b6000808273ffffffffffffffffffffffffffffffffffffffff163b119050919050565b82805461237890612aeb565b90600052602060002090601f01602090048101928261239a57600085556123e1565b82601f106123b357805160ff19168380011785556123e1565b828001600101855582156123e1579182015b828111156123e05782518255916020019190600101906123c5565b5b5090506123ee91906123f2565b5090565b5b8082111561240b5760008160009055506001016123f3565b5090565b6000604051905090565b600080fd5b600080fd5b60007fffffffff0000000000000000000000000000000000000000000000000000000082169050919050565b61245881612423565b811461246357600080fd5b50565b6000813590506124758161244f565b92915050565b60006020828403121561249157612490612419565b5b600061249f84828501612466565b91505092915050565b60008115159050919050565b6124bd816124a8565b82525050565b60006020820190506124d860008301846124b4565b92915050565b600081519050919050565b600082825260208201905092915050565b60005b838110156125185780820151818401526020810190506124fd565b83811115612527576000848401525b50505050565b6000601f19601f8301169050919050565b6000612549826124de565b61255381856124e9565b93506125638185602086016124fa565b61256c8161252d565b840191505092915050565b60006020820190508181036000830152612591818461253e565b905092915050565b6000819050919050565b6125ac81612599565b81146125b757600080fd5b50565b6000813590506125c9816125a3565b92915050565b6000602082840312156125e5576125e4612419565b5b60006125f3848285016125ba565b91505092915050565b600073ffffffffffffffffffffffffffffffffffffffff82169050919050565b6000612627826125fc565b9050919050565b6126378161261c565b82525050565b6000602082019050612652600083018461262e565b92915050565b6126618161261c565b811461266c57600080fd5b50565b60008135905061267e81612658565b92915050565b6000806040838503121561269b5761269a612419565b5b60006126a98582860161266f565b92505060206126ba858286016125ba565b9150509250929050565b6126cd81612599565b82525050565b60006020820190506126e860008301846126c4565b92915050565b60008060006060848603121561270757612706612419565b5b60006127158682870161266f565b93505060206127268682870161266f565b9250506040612737868287016125ba565b9150509250925092565b600080fd5b600080fd5b7f4e487b7100000000000000000000000000000000000000000000000000000000600052604160045260246000fd5b6127838261252d565b810181811067ffffffffffffffff821117156127a2576127a161274b565b5b80604052505050565b60006127b561240f565b90506127c1828261277a565b919050565b600067ffffffffffffffff8211156127e1576127e061274b565b5b6127ea8261252d565b9050602081019050919050565b82818337600083830152505050565b6000612819612814846127c6565b6127ab565b90508281526020810184848401111561283557612834612746565b5b6128408482856127f7565b509392505050565b600082601f83011261285d5761285c612741565b5b813561286d848260208601612806565b91505092915050565b60006020828403121561288c5761288b612419565b5b600082013567ffffffffffffffff8111156128aa576128a961241e565b5b6128b684828501612848565b91505092915050565b6000602082840312156128d5576128d4612419565b5b60006128e38482850161266f565b91505092915050565b6128f5816124a8565b811461290057600080fd5b50565b600081359050612912816128ec565b92915050565b6000806040838503121561292f5761292e612419565b5b600061293d8582860161266f565b925050602061294e85828601612903565b9150509250929050565b600067ffffffffffffffff8211156129735761297261274b565b5b61297c8261252d565b9050602081019050919050565b600061299c61299784612958565b6127ab565b9050828152602081018484840111156129b8576129b7612746565b5b6129c38482856127f7565b509392505050565b600082601f8301126129e0576129df612741565b5b81356129f0848260208601612989565b91505092915050565b60008060008060808587031215612a1357612a12612419565b5b6000612a218782880161266f565b9450506020612a328782880161266f565b9350506040612a43878288016125ba565b925050606085013567ffffffffffffffff811115612a6457612a6361241e565b5b612a70878288016129cb565b91505092959194509250565b60008060408385031215612a9357612a92612419565b5b6000612aa18582860161266f565b9250506020612ab28582860161266f565b9150509250929050565b7f4e487b7100000000000000000000000000000000000000000000000000000000600052602260045260246000fd5b60006002820490506001821680612b0357607f821691505b60208210811415612b1757612b16612abc565b5b50919050565b7f4552433732313a20617070726f76656420717565727920666f72206e6f6e657860008201527f697374656e7420746f6b656e0000000000000000000000000000000000000000602082015250565b6000612b79602c836124e9565b9150612b8482612b1d565b604082019050919050565b60006020820190508181036000830152612ba881612b6c565b9050919050565b7f4552433732313a20617070726f76616c20746f2063757272656e74206f776e6560008201527f7200000000000000000000000000000000000000000000000000000000000000602082015250565b6000612c0b6021836124e9565b9150612c1682612baf565b604082019050919050565b60006020820190508181036000830152612c3a81612bfe565b9050919050565b7f4552433732313a20617070726f76652063616c6c6572206973206e6f74206f7760008201527f6e6572206e6f7220617070726f76656420666f7220616c6c0000000000000000602082015250565b6000612c9d6038836124e9565b9150612ca882612c41565b604082019050919050565b60006020820190508181036000830152612ccc81612c90565b9050919050565b7f4e487b7100000000000000000000000000000000000000000000000000000000600052601160045260246000fd5b6000612d0d82612599565b9150612d1883612599565b9250827fffffffffffffffffffffffffffffffffffffffffffffffffffffffffffffffff03821115612d4d57612d4c612cd3565b5b828201905092915050565b7f4552433732313a207472616e736665722063616c6c6572206973206e6f74206f60008201527f776e6572206e6f7220617070726f766564000000000000000000000000000000602082015250565b6000612db46031836124e9565b9150612dbf82612d58565b604082019050919050565b60006020820190508181036000830152612de381612da7565b9050919050565b7f455243373231456e756d657261626c653a206f776e657220696e646578206f7560008201527f74206f6620626f756e6473000000000000000000000000000000000000000000602082015250565b6000612e46602b836124e9565b9150612e5182612dea565b604082019050919050565b60006020820190508181036000830152612e7581612e39565b9050919050565b7f455243373231456e756d657261626c653a20676c6f62616c20696e646578206f60008201527f7574206f6620626f756e64730000000000000000000000000000000000000000602082015250565b6000612ed8602c836124e9565b9150612ee382612e7c565b604082019050919050565b60006020820190508181036000830152612f0781612ecb565b9050919050565b7f4e487b7100000000000000000000000000000000000000000000000000000000600052603260045260246000fd5b7f4f776e61626c653a2063616c6c6572206973206e6f7420746865206f776e6572600082015250565b6000612f736020836124e9565b9150612f7e82612f3d565b602082019050919050565b60006020820190508181036000830152612fa281612f66565b9050919050565b7f4552433732313a206f776e657220717565727920666f72206e6f6e657869737460008201527f656e7420746f6b656e0000000000000000000000000000000000000000000000602082015250565b60006130056029836124e9565b915061301082612fa9565b604082019050919050565b6000602082019050818103600083015261303481612ff8565b9050919050565b7f4552433732313a2062616c616e636520717565727920666f7220746865207a6560008201527f726f206164647265737300000000000000000000000000000000000000000000602082015250565b6000613097602a836124e9565b91506130a28261303b565b604082019050919050565b600060208201905081810360008301526130c68161308a565b9050919050565b7f206e6f6e206578697374656e7420746f6b656e20000000000000000000000000600082015250565b60006131036014836124e9565b915061310e826130cd565b602082019050919050565b60006020820190508181036000830152613132816130f6565b9050919050565b600081905092915050565b600061314f826124de565b6131598185613139565b93506131698185602086016124fa565b80840191505092915050565b60008190508160005260206000209050919050565b6000815461319781612aeb565b6131a18186613139565b945060018216600081146131bc57600181146131cd57613200565b60ff19831686528186019350613200565b6131d685613175565b60005b838110156131f8578154818901526001820191506020810190506131d9565b838801955050505b50505092915050565b60006132158286613144565b91506132218285613144565b915061322d828461318a565b9150819050949350505050565b7f4f776e61626c653a206e6577206f776e657220697320746865207a65726f206160008201527f6464726573730000000000000000000000000000000000000000000000000000602082015250565b60006132966026836124e9565b91506132a18261323a565b604082019050919050565b600060208201905081810360008301526132c581613289565b9050919050565b7f4552433732313a206f70657261746f7220717565727920666f72206e6f6e657860008201527f697374656e7420746f6b656e0000000000000000000000000000000000000000602082015250565b6000613328602c836124e9565b9150613333826132cc565b604082019050919050565b600060208201905081810360008301526133578161331b565b9050919050565b7f4552433732313a207472616e736665722066726f6d20696e636f72726563742060008201527f6f776e6572000000000000000000000000000000000000000000000000000000602082015250565b60006133ba6025836124e9565b91506133c58261335e565b604082019050919050565b600060208201905081810360008301526133e9816133ad565b9050919050565b7f4552433732313a207472616e7366657220746f20746865207a65726f2061646460008201527f7265737300000000000000000000000000000000000000000000000000000000602082015250565b600061344c6024836124e9565b9150613457826133f0565b604082019050919050565b6000602082019050818103600083015261347b8161343f565b9050919050565b600061348d82612599565b915061349883612599565b9250828210156134ab576134aa612cd3565b5b828203905092915050565b7f4552433732313a20617070726f766520746f2063616c6c657200000000000000600082015250565b60006134ec6019836124e9565b91506134f7826134b6565b602082019050919050565b6000602082019050818103600083015261351b816134df565b9050919050565b7f4552433732313a207472616e7366657220746f206e6f6e20455243373231526560008201527f63656976657220696d706c656d656e7465720000000000000000000000000000602082015250565b600061357e6032836124e9565b915061358982613522565b604082019050919050565b600060208201905081810360008301526135ad81613571565b9050919050565b60006135bf82612599565b91507fffffffffffffffffffffffffffffffffffffffffffffffffffffffffffffffff8214156135f2576135f1612cd3565b5b600182019050919050565b7f4e487b7100000000000000000000000000000000000000000000000000000000600052601260045260246000fd5b600061363782612599565b915061364283612599565b925082613652576136516135fd565b5b828204905092915050565b600061366882612599565b915061367383612599565b925082613683576136826135fd565b5b828206905092915050565b600081519050919050565b600082825260208201905092915050565b60006136b58261368e565b6136bf8185613699565b93506136cf8185602086016124fa565b6136d88161252d565b840191505092915050565b60006080820190506136f8600083018761262e565b613705602083018661262e565b61371260408301856126c4565b818103606083015261372481846136aa565b905095945050505050565b60008151905061373e8161244f565b92915050565b60006020828403121561375a57613759612419565b5b60006137688482850161372f565b91505092915050565b7f4552433732313a206d696e7420746f20746865207a65726f2061646472657373600082015250565b60006137a76020836124e9565b91506137b282613771565b602082019050919050565b600060208201905081810360008301526137d68161379a565b9050919050565b7f4552433732313a20746f6b656e20616c7265616479206d696e74656400000000600082015250565b6000613813601c836124e9565b915061381e826137dd565b602082019050919050565b6000602082019050818103600083015261384281613806565b9050919050565b7f4e487b7100000000000000000000000000000000000000000000000000000000600052603160045260246000fdfea2646970667358221220233884f06975867946581ed8a92a799bd3b7fa8ec7f0e167bc953de6a54314ed64736f6c63430008090033",
  "immutableReferences": {},
  "source": "// SPDX-License-Identifier: MIT\n\nimport \"@openzeppelin/contracts/token/ERC721/ERC721.sol\";\nimport \"@openzeppelin/contracts/token/ERC721/extensions/ERC721Enumerable.sol\";\nimport \"@openzeppelin/contracts/access/Ownable.sol\";\n\n\npragma solidity >=0.7.0 <0.9.0;\n\ncontract NFT is ERC721Enumerable,Ownable{\n\n\n    using Strings for uint256;\n\n    uint256 public cost= 1 ether ;\n    uint256 public maxSupply = 20;\n\n    string baseURI;\n    string public baseExtension= \".json\";\n\n    constructor(\n        string memory _name,\n        string memory _symbol,\n        string memory _initBaseURI\n    ) ERC721(_name,_symbol){\n        setBaseURI(_initBaseURI);\n    }\n    \n    function mint() public payable{\n        uint256 supply = totalSupply();\n\n        require(supply <=maxSupply);\n\n        if (msg.sender!=owner()){\n            require(msg.value >=cost);\n        }\n        _safeMint(msg.sender, supply+1);\n\n\n    }\n\n    function tokenURI(uint256 tokenId) public view virtual override returns(string memory){\n         require(_exists(tokenId),\" non existent token \");\n\n         string memory currentBaseURI = _baseURI();\n\n         return bytes(currentBaseURI).length>0? string(abi.encodePacked(\n             currentBaseURI,tokenId.toString(),baseExtension\n         )):\"\";\n    }\n\n    function _baseURI() internal view virtual override returns(string memory){\n        return baseURI;\n    }\n\n    function setBaseURI(string memory _newBaseURI) public onlyOwner{\n        baseURI = _newBaseURI;\n    }\n\n}",
  "sourcePath": "/Users/darren/Documents/project/sol/defi_example/fractional_nft/contracts/NFT.sol",
  "compiler": {
    "name": "solc",
    "version": "0.8.9+commit.e5eed63a.Emscripten.clang"
  },
  "schemaVersion": "3.4.5",
  "updatedAt": "2022-04-25T15:17:00.103Z",
  "networkType": "ethereum",
  "devdoc": {
    "kind": "dev",
    "methods": {
      "approve(address,uint256)": {
        "details": "See {IERC721-approve}."
      },
      "balanceOf(address)": {
        "details": "See {IERC721-balanceOf}."
      },
      "getApproved(uint256)": {
        "details": "See {IERC721-getApproved}."
      },
      "isApprovedForAll(address,address)": {
        "details": "See {IERC721-isApprovedForAll}."
      },
      "name()": {
        "details": "See {IERC721Metadata-name}."
      },
      "owner()": {
        "details": "Returns the address of the current owner."
      },
      "ownerOf(uint256)": {
        "details": "See {IERC721-ownerOf}."
      },
      "renounceOwnership()": {
        "details": "Leaves the contract without owner. It will not be possible to call `onlyOwner` functions anymore. Can only be called by the current owner. NOTE: Renouncing ownership will leave the contract without an owner, thereby removing any functionality that is only available to the owner."
      },
      "safeTransferFrom(address,address,uint256)": {
        "details": "See {IERC721-safeTransferFrom}."
      },
      "safeTransferFrom(address,address,uint256,bytes)": {
        "details": "See {IERC721-safeTransferFrom}."
      },
      "setApprovalForAll(address,bool)": {
        "details": "See {IERC721-setApprovalForAll}."
      },
      "supportsInterface(bytes4)": {
        "details": "See {IERC165-supportsInterface}."
      },
      "symbol()": {
        "details": "See {IERC721Metadata-symbol}."
      },
      "tokenByIndex(uint256)": {
        "details": "See {IERC721Enumerable-tokenByIndex}."
      },
      "tokenOfOwnerByIndex(address,uint256)": {
        "details": "See {IERC721Enumerable-tokenOfOwnerByIndex}."
      },
      "tokenURI(uint256)": {
        "details": "See {IERC721Metadata-tokenURI}."
      },
      "totalSupply()": {
        "details": "See {IERC721Enumerable-totalSupply}."
      },
      "transferFrom(address,address,uint256)": {
        "details": "See {IERC721-transferFrom}."
      },
      "transferOwnership(address)": {
        "details": "Transfers ownership of the contract to a new account (`newOwner`). Can only be called by the current owner."
      }
    },
    "version": 1
  },
  "userdoc": {
    "kind": "user",
    "methods": {},
    "version": 1
  }
}