{
  "contractName": "Dao",
  "abi": [
    {
      "inputs": [
        {
          "internalType": "address",
          "name": "_token",
          "type": "address"
        }
      ],
      "stateMutability": "nonpayable",
      "type": "constructor"
    },
    {
      "inputs": [
        {
          "internalType": "bytes32",
          "name": "",
          "type": "bytes32"
        }
      ],
      "name": "proposals",
      "outputs": [
        {
          "internalType": "address",
          "name": "author",
          "type": "address"
        },
        {
          "internalType": "bytes32",
          "name": "hash",
          "type": "bytes32"
        },
        {
          "internalType": "uint256",
          "name": "createdAt",
          "type": "uint256"
        },
        {
          "internalType": "uint256",
          "name": "votesYes",
          "type": "uint256"
        },
        {
          "internalType": "uint256",
          "name": "votesNo",
          "type": "uint256"
        },
        {
          "internalType": "enum Dao.Status",
          "name": "status",
          "type": "uint8"
        }
      ],
      "stateMutability": "view",
      "type": "function"
    },
    {
      "inputs": [
        {
          "internalType": "address",
          "name": "",
          "type": "address"
        }
      ],
      "name": "shares",
      "outputs": [
        {
          "internalType": "uint256",
          "name": "",
          "type": "uint256"
        }
      ],
      "stateMutability": "view",
      "type": "function"
    },
    {
      "inputs": [],
      "name": "token",
      "outputs": [
        {
          "internalType": "contract IERC20",
          "name": "",
          "type": "address"
        }
      ],
      "stateMutability": "view",
      "type": "function"
    },
    {
      "inputs": [],
      "name": "totalShares",
      "outputs": [
        {
          "internalType": "uint256",
          "name": "",
          "type": "uint256"
        }
      ],
      "stateMutability": "view",
      "type": "function"
    },
    {
      "inputs": [
        {
          "internalType": "address",
          "name": "",
          "type": "address"
        },
        {
          "internalType": "bytes32",
          "name": "",
          "type": "bytes32"
        }
      ],
      "name": "votes",
      "outputs": [
        {
          "internalType": "bool",
          "name": "",
          "type": "bool"
        }
      ],
      "stateMutability": "view",
      "type": "function"
    },
    {
      "inputs": [
        {
          "internalType": "uint256",
          "name": "amount",
          "type": "uint256"
        }
      ],
      "name": "deposit",
      "outputs": [],
      "stateMutability": "nonpayable",
      "type": "function"
    },
    {
      "inputs": [
        {
          "internalType": "uint256",
          "name": "amount",
          "type": "uint256"
        }
      ],
      "name": "withdraw",
      "outputs": [],
      "stateMutability": "nonpayable",
      "type": "function"
    },
    {
      "inputs": [
        {
          "internalType": "bytes32",
          "name": "proposalHash",
          "type": "bytes32"
        }
      ],
      "name": "createProposal",
      "outputs": [],
      "stateMutability": "nonpayable",
      "type": "function"
    },
    {
      "inputs": [
        {
          "internalType": "bytes32",
          "name": "proposalHash",
          "type": "bytes32"
        },
        {
          "internalType": "enum Dao.Side",
          "name": "side",
          "type": "uint8"
        }
      ],
      "name": "vote",
      "outputs": [],
      "stateMutability": "nonpayable",
      "type": "function"
    }
  ],
  "bytecode": "0x608060405234801561001057600080fd5b50604051610dc7380380610dc78339818101604052602081101561003357600080fd5b810190808051906020019092919050505080600460006101000a81548173ffffffffffffffffffffffffffffffffffffffff021916908373ffffffffffffffffffffffffffffffffffffffff16021790555050610d32806100956000396000f3fe608060405234801561001057600080fd5b50600436106100935760003560e01c80633a98ef39116100665780633a98ef39146101de578063b6b55f25146101fc578063c9a28cb91461022a578063ce7c2ac214610265578063fc0c546a146102bd57610093565b80631db5ade8146100985780632542bf06146100fc5780632e1a7d4d1461012a57806332ed5b1214610158575b600080fd5b6100e4600480360360408110156100ae57600080fd5b81019080803573ffffffffffffffffffffffffffffffffffffffff169060200190929190803590602001909291905050506102f1565b60405180821515815260200191505060405180910390f35b6101286004803603602081101561011257600080fd5b8101908080359060200190929190505050610320565b005b6101566004803603602081101561014057600080fd5b810190808035906020019092919050505061056c565b005b6101846004803603602081101561016e57600080fd5b8101908080359060200190929190505050610750565b604051808773ffffffffffffffffffffffffffffffffffffffff1681526020018681526020018581526020018481526020018381526020018260028111156101c857fe5b8152602001965050505050505060405180910390f35b6101e66107b9565b6040518082815260200191505060405180910390f35b6102286004803603602081101561021257600080fd5b81019080803590602001909291905050506107bf565b005b6102636004803603604081101561024057600080fd5b8101908080359060200190929190803560ff16906020019092919050505061090c565b005b6102a76004803603602081101561027b57600080fd5b81019080803573ffffffffffffffffffffffffffffffffffffffff169060200190929190505050610cbe565b6040518082815260200191505060405180910390f35b6102c5610cd6565b604051808273ffffffffffffffffffffffffffffffffffffffff16815260200191505060405180910390f35b60016020528160005260406000206020528060005260406000206000915091509054906101000a900460ff1681565b683635c9adc5dea00000600260003373ffffffffffffffffffffffffffffffffffffffff1673ffffffffffffffffffffffffffffffffffffffff1681526020019081526020016000205410156103de576040517f08c379a000000000000000000000000000000000000000000000000000000000815260040180806020018281038252600a8152602001807f6e6f7420656e6f7567680000000000000000000000000000000000000000000081525060200191505060405180910390fd5b6000801b600080838152602001908152602001600020600101541461046b576040517f08c379a000000000000000000000000000000000000000000000000000000000815260040180806020018281038252601c8152602001807f746869732070726f706f73616c20616c7265616479206578697374730000000081525060200191505060405180910390fd5b6040518060c001604052803373ffffffffffffffffffffffffffffffffffffffff1681526020018281526020014281526020016000815260200160008152602001600060028111156104b957fe5b81525060008083815260200190815260200160002060008201518160000160006101000a81548173ffffffffffffffffffffffffffffffffffffffff021916908373ffffffffffffffffffffffffffffffffffffffff1602179055506020820151816001015560408201518160020155606082015181600301556080820151816004015560a08201518160050160006101000a81548160ff0219169083600281111561056157fe5b021790555090505050565b80600260003373ffffffffffffffffffffffffffffffffffffffff1673ffffffffffffffffffffffffffffffffffffffff168152602001908152602001600020541015610621576040517f08c379a00000000000000000000000000000000000000000000000000000000081526004018080602001828103825260118152602001807f6e6f7420656e6f7567682073686172657300000000000000000000000000000081525060200191505060405180910390fd5b80600260003373ffffffffffffffffffffffffffffffffffffffff1673ffffffffffffffffffffffffffffffffffffffff1681526020019081526020016000206000828254039250508190555080600360008282540392505081905550600460009054906101000a900473ffffffffffffffffffffffffffffffffffffffff1673ffffffffffffffffffffffffffffffffffffffff1663a9059cbb33836040518363ffffffff1660e01b8152600401808373ffffffffffffffffffffffffffffffffffffffff16815260200182815260200192505050602060405180830381600087803b15801561071157600080fd5b505af1158015610725573d6000803e3d6000fd5b505050506040513d602081101561073b57600080fd5b81019080805190602001909291905050505050565b60006020528060005260406000206000915090508060000160009054906101000a900473ffffffffffffffffffffffffffffffffffffffff16908060010154908060020154908060030154908060040154908060050160009054906101000a900460ff16905086565b60035481565b80600260003373ffffffffffffffffffffffffffffffffffffffff1673ffffffffffffffffffffffffffffffffffffffff1681526020019081526020016000206000828254019250508190555080600360008282540192505081905550600460009054906101000a900473ffffffffffffffffffffffffffffffffffffffff1673ffffffffffffffffffffffffffffffffffffffff166323b872dd3330846040518463ffffffff1660e01b8152600401808473ffffffffffffffffffffffffffffffffffffffff1681526020018373ffffffffffffffffffffffffffffffffffffffff1681526020018281526020019350505050602060405180830381600087803b1580156108cd57600080fd5b505af11580156108e1573d6000803e3d6000fd5b505050506040513d60208110156108f757600080fd5b81019080805190602001909291905050505050565b6000806000848152602001908152602001600020905060001515600160003373ffffffffffffffffffffffffffffffffffffffff1673ffffffffffffffffffffffffffffffffffffffff168152602001908152602001600020600085815260200190815260200160002060009054906101000a900460ff161515146109f9576040517f08c379a000000000000000000000000000000000000000000000000000000000815260040180806020018281038252600d8152602001807f616c726561647920766f7465640000000000000000000000000000000000000081525060200191505060405180910390fd5b6000801b600080858152602001908152602001600020600101541415610a87576040517f08c379a00000000000000000000000000000000000000000000000000000000081526004018080602001828103825260168152602001807f70726f706f73616c20616c72656164792065786973740000000000000000000081525060200191505060405180910390fd5b62093a80816002015401421115610b06576040517f08c379a00000000000000000000000000000000000000000000000000000000081526004018080602001828103825260118152602001807f766f74696e67207065726964206f76657200000000000000000000000000000081525060200191505060405180910390fd5b60018060003373ffffffffffffffffffffffffffffffffffffffff1673ffffffffffffffffffffffffffffffffffffffff168152602001908152602001600020600085815260200190815260200160002060006101000a81548160ff02191690831515021790555060006001811115610b7b57fe5b826001811115610b8757fe5b1415610c2557600260003373ffffffffffffffffffffffffffffffffffffffff1673ffffffffffffffffffffffffffffffffffffffff1681526020019081526020016000205481600301600082825401925050819055506032600354606483600301540281610bf257fe5b041115610c205760018160050160006101000a81548160ff02191690836002811115610c1a57fe5b02179055505b610cb9565b600260003373ffffffffffffffffffffffffffffffffffffffff1673ffffffffffffffffffffffffffffffffffffffff1681526020019081526020016000205481600401600082825401925050819055506032600354606483600401540281610c8a57fe5b041115610cb85760028160050160006101000a81548160ff02191690836002811115610cb257fe5b02179055505b5b505050565b60026020528060005260406000206000915090505481565b600460009054906101000a900473ffffffffffffffffffffffffffffffffffffffff168156fea2646970667358221220b98a25d55d701f2809073df13110d9efec13cdd23a19e43fae3a66290112195064736f6c63430007030033",
  "immutableReferences": {},
  "source": "pragma solidity ^0.7.3;\n\nimport '@openzeppelin/contracts/token/ERC20/IERC20.sol';\n\ncontract Dao{\n    enum Side { Yes,No }\n\n    enum Status {Undecided ,Approved,Rejected} \n\n    struct Proposal{\n        address author;\n        bytes32 hash;\n        uint createdAt;\n        uint votesYes;\n        uint votesNo;\n        Status status;\n    }\n\n    mapping(bytes32 => Proposal) public proposals;\n\n    mapping(address => mapping(bytes32 =>bool)) public votes;\n\n    mapping(address => uint ) public shares ;\n    \n    uint public totalShares;\n\n    IERC20 public token;\n\n    uint constant CREATE_PROPOSAL_MIN_SHARE =1000 * 10 **18;\n    uint constant VOTING_PERIOD = 7 days ;\n    \n    constructor(address _token){\n        token = IERC20(_token);\n    }\n\n    function deposit(uint amount) external{\n        shares[msg.sender] += amount;\n        totalShares += amount;\n        token.transferFrom(msg.sender,address(this),amount);\n    }\n\n    function withdraw(uint amount) external{\n        require(shares[msg.sender] >= amount, \"not enough shares\");\n        shares[msg.sender] -= amount;\n        totalShares -=amount;\n        token.transfer(msg.sender,amount);\n\n    }\n\n    function createProposal(bytes32 proposalHash) external{\n        require(shares[msg.sender] >=CREATE_PROPOSAL_MIN_SHARE,\n        \"not enough\");\n\n        require(proposals[proposalHash].hash ==bytes32(0),\"this proposal already exists\");\n\n        proposals[proposalHash] = Proposal(\n            msg.sender,\n            proposalHash,\n            block.timestamp,\n            0,\n            0,\n            Status.Undecided\n        );\n\n    } \n\n    function vote(bytes32 proposalHash,Side side ) external{\n        Proposal storage proposal = proposals[proposalHash];\n        require(votes[msg.sender][proposalHash] ==false,\"already voted\");\n        require(proposals[proposalHash].hash !=bytes32(0),'proposal already exist');\n        require(block.timestamp <= proposal.createdAt + VOTING_PERIOD ,\"voting perid over\");\n\n        votes[msg.sender][proposalHash]=true;\n\n        if(side ==Side.Yes){\n            proposal.votesYes+= shares[msg.sender];\n            if( proposal.votesYes *100 / totalShares >50){\n                proposal.status=Status.Approved;\n            }\n        }else{\n            proposal.votesNo += shares[msg.sender];\n            if (proposal.votesNo *100 / totalShares >50){\n                 proposal.status=Status.Rejected;\n            }\n        }\n    }\n\n\n\n\n}",
  "sourcePath": "/Users/darren/Documents/project/sol/defi_example/eattheblocks/defi-development-mastery/1-defi-building-blocks/13-dao/contracts/Dao.sol",
  "compiler": {
    "name": "solc",
    "version": "0.7.3+commit.9bfce1f6.Emscripten.clang"
  },
  "schemaVersion": "3.4.5",
  "updatedAt": "2022-04-10T13:51:41.477Z",
  "devdoc": {
    "kind": "dev",
    "methods": {},
    "version": 1
  },
  "userdoc": {
    "kind": "user",
    "methods": {},
    "version": 1
  }
}