{
  "contractName": "MyDeFiProject",
  "abi": [
    {
      "inputs": [
        {
          "internalType": "address",
          "name": "daiAddress",
          "type": "address"
        }
      ],
      "payable": false,
      "stateMutability": "nonpayable",
      "type": "constructor"
    },
    {
      "constant": false,
      "inputs": [
        {
          "internalType": "address",
          "name": "recipient",
          "type": "address"
        },
        {
          "internalType": "uint256",
          "name": "amount",
          "type": "uint256"
        }
      ],
      "name": "foo",
      "outputs": [],
      "payable": false,
      "stateMutability": "nonpayable",
      "type": "function"
    }
  ],
  "bytecode": "0x608060405234801561001057600080fd5b5060405161022f38038061022f8339818101604052602081101561003357600080fd5b8101908080519060200190929190505050806000806101000a81548173ffffffffffffffffffffffffffffffffffffffff021916908373ffffffffffffffffffffffffffffffffffffffff1602179055505061019b806100946000396000f3fe608060405234801561001057600080fd5b506004361061002b5760003560e01c8063bd0d639f14610030575b600080fd5b61007c6004803603604081101561004657600080fd5b81019080803573ffffffffffffffffffffffffffffffffffffffff1690602001909291908035906020019092919050505061007e565b005b6000809054906101000a900473ffffffffffffffffffffffffffffffffffffffff1673ffffffffffffffffffffffffffffffffffffffff1663a9059cbb83836040518363ffffffff1660e01b8152600401808373ffffffffffffffffffffffffffffffffffffffff1673ffffffffffffffffffffffffffffffffffffffff16815260200182815260200192505050602060405180830381600087803b15801561012657600080fd5b505af115801561013a573d6000803e3d6000fd5b505050506040513d602081101561015057600080fd5b810190808051906020019092919050505050505056fea265627a7a7231582068d6f6cf40f77d7e675cd6ca1167b48140aa641861b8d4882546adbb4c8ee45564736f6c63430005100032",
  "source": "pragma solidity ^0.5.0;\n\nimport '@openzeppelin/contracts/token/ERC20/IERC20.sol';\n\ncontract MyDeFiProject {\n  IERC20 dai;\n\n  constructor(address daiAddress) public {\n    dai = IERC20(daiAddress);\n  }\n\n  function foo(address recipient, uint amount) external {\n    //do some stuffs\n    dai.transfer(recipient, amount);\n  }\n}\n",
  "sourcePath": "/Users/darren/Documents/project/sol/defi_example/eattheblocks/blockchain-masterclass/137-defi-programming-dai/contracts/MyDeFiProject.sol",
  "compiler": {
    "name": "solc",
    "version": "0.5.16+commit.9c3226ce.Emscripten.clang"
  },
  "schemaVersion": "3.4.5",
  "updatedAt": "2022-04-09T09:33:15.641Z",
  "networkType": "ethereum",
  "devdoc": {
    "methods": {}
  },
  "userdoc": {
    "methods": {}
  }
}