{
  "contractName": "ContractB",
  "abi": [
    {
      "inputs": [
        {
          "internalType": "address",
          "name": "",
          "type": "address"
        },
        {
          "internalType": "address",
          "name": "",
          "type": "address"
        },
        {
          "internalType": "uint256",
          "name": "",
          "type": "uint256"
        },
        {
          "internalType": "bytes",
          "name": "",
          "type": "bytes"
        }
      ],
      "name": "onERC721Received",
      "outputs": [
        {
          "internalType": "bytes4",
          "name": "",
          "type": "bytes4"
        }
      ],
      "stateMutability": "nonpayable",
      "type": "function"
    },
    {
      "inputs": [
        {
          "internalType": "uint256",
          "name": "tokenId",
          "type": "uint256"
        }
      ],
      "name": "deposit",
      "outputs": [],
      "stateMutability": "nonpayable",
      "type": "function"
    },
    {
      "inputs": [
        {
          "internalType": "uint256",
          "name": "tokenId",
          "type": "uint256"
        }
      ],
      "name": "withdraw",
      "outputs": [],
      "stateMutability": "nonpayable",
      "type": "function"
    }
  ],
  "bytecode": "0x608060405234801561001057600080fd5b5061022a806100206000396000f3fe608060405234801561001057600080fd5b50600436106100415760003560e01c8063150b7a02146100465780632e1a7d4d1461017e578063b6b55f25146101ac575b600080fd5b6101496004803603608081101561005c57600080fd5b81019080803573ffffffffffffffffffffffffffffffffffffffff169060200190929190803573ffffffffffffffffffffffffffffffffffffffff16906020019092919080359060200190929190803590602001906401000000008111156100c357600080fd5b8201836020820111156100d557600080fd5b803590602001918460018302840111640100000000831117156100f757600080fd5b91908080601f016020809104026020016040519081016040528093929190818152602001838380828437600081840152601f19601f8201169050808301925050505050505091929192905050506101da565b60405180827bffffffffffffffffffffffffffffffffffffffffffffffffffffffff1916815260200191505060405180910390f35b6101aa6004803603602081101561019457600080fd5b81019080803590602001909291905050506101ee565b005b6101d8600480360360208110156101c257600080fd5b81019080803590602001909291905050506101f1565b005b600063150b7a0260e01b9050949350505050565b50565b5056fea26469706673582212209d6e8eedfd985f3381d9ce1ea6f20417774fcfd37da2cc3f74a15ab6d44922bc64736f6c63430007030033",
  "immutableReferences": {},
  "source": "\npragma solidity ^0.7.3;\n\nimport '@openzeppelin/contracts/token/ERC721/ERC721Holder.sol';\nimport '@openzeppelin/contracts/token/ERC721/IERC721.sol';\n\n\ncontract ContractB is ERC721Holder {\n  \n  function deposit(uint tokenId) external{}\n\n  function withdraw(uint tokenId) external{}\n\n}\n\ncontract ContractA is ERC721Holder{\n\n     IERC721 public token ;\n     ContractB public contractB ;\n     \n\n     constructor(address _token,address _contractB){\n         token = IERC721(_token);\n         contractB = ContractB(_contractB);\n     }\n\n     function deposite(uint tokenID) external{\n         \n         token.safeTransferFrom(msg.sender,address(this),tokenID);\n\n         token.approve(address(contractB),tokenID);\n\n         contractB.deposit(tokenID);\n\n     }\n\n     function withdraw(uint tokenId) external{\n         contractB.withdraw(tokenId);\n         token.safeTransferFrom(address(this),msg.sender,tokenId);\n     }\n}",
  "sourcePath": "/Users/darren/Documents/project/sol/defi_example/eattheblocks/defi-development-mastery/1-defi-building-blocks/3-erc721-tokens/contracts/ContractA.sol",
  "compiler": {
    "name": "solc",
    "version": "0.7.3+commit.9bfce1f6.Emscripten.clang"
  },
  "schemaVersion": "3.4.5",
  "updatedAt": "2022-04-10T03:13:03.566Z",
  "devdoc": {
    "kind": "dev",
    "methods": {
      "onERC721Received(address,address,uint256,bytes)": {
        "details": "See {IERC721Receiver-onERC721Received}. Always returns `IERC721Receiver.onERC721Received.selector`."
      }
    },
    "version": 1
  },
  "userdoc": {
    "kind": "user",
    "methods": {},
    "version": 1
  }
}