{
  "contractName": "ExampleFlashloanUser",
  "abi": [
    {
      "anonymous": false,
      "inputs": [
        {
          "indexed": false,
          "internalType": "string",
          "name": "message",
          "type": "string"
        },
        {
          "indexed": false,
          "internalType": "uint256",
          "name": "value",
          "type": "uint256"
        }
      ],
      "name": "Log",
      "type": "event"
    },
    {
      "inputs": [
        {
          "internalType": "address",
          "name": "flashloan",
          "type": "address"
        },
        {
          "internalType": "uint256",
          "name": "amount",
          "type": "uint256"
        },
        {
          "internalType": "address",
          "name": "token",
          "type": "address"
        }
      ],
      "name": "startFlashloan",
      "outputs": [],
      "stateMutability": "nonpayable",
      "type": "function"
    },
    {
      "inputs": [
        {
          "internalType": "uint256",
          "name": "amount",
          "type": "uint256"
        },
        {
          "internalType": "address",
          "name": "token",
          "type": "address"
        },
        {
          "internalType": "bytes",
          "name": "data",
          "type": "bytes"
        }
      ],
      "name": "flashloanCallback",
      "outputs": [],
      "stateMutability": "nonpayable",
      "type": "function"
    }
  ],
  "bytecode": "0x608060405234801561001057600080fd5b5061040e806100206000396000f3fe608060405234801561001057600080fd5b50600436106100365760003560e01c8063a6fc41ab1461003b578063e2ecfa5d14610120575b600080fd5b61011e6004803603606081101561005157600080fd5b8101908080359060200190929190803573ffffffffffffffffffffffffffffffffffffffff1690602001909291908035906020019064010000000081111561009857600080fd5b8201836020820111156100aa57600080fd5b803590602001918460018302840111640100000000831117156100cc57600080fd5b91908080601f016020809104026020016040519081016040528093929190818152602001838380828437600081840152601f19601f82011690508083019250505050505050919291929050505061018e565b005b61018c6004803603606081101561013657600080fd5b81019080803573ffffffffffffffffffffffffffffffffffffffff16906020019092919080359060200190929190803573ffffffffffffffffffffffffffffffffffffffff1690602001909291905050506102b0565b005b7fdd970dd9b5bfe707922155b058a407655cb18288b807e2216442bca8ad83d6b5836040518080602001838152602001828103825260128152602001807f63616c6c6261636b2069732063616c6c656400000000000000000000000000008152506020019250505060405180910390a18173ffffffffffffffffffffffffffffffffffffffff1663a9059cbb33856040518363ffffffff1660e01b8152600401808373ffffffffffffffffffffffffffffffffffffffff16815260200182815260200192505050602060405180830381600087803b15801561026f57600080fd5b505af1158015610283573d6000803e3d6000fd5b505050506040513d602081101561029957600080fd5b810190808051906020019092919050505050505050565b8273ffffffffffffffffffffffffffffffffffffffff16635c26993c308484604051806020016040528060008152506040518563ffffffff1660e01b8152600401808573ffffffffffffffffffffffffffffffffffffffff1681526020018481526020018373ffffffffffffffffffffffffffffffffffffffff16815260200180602001828103825283818151815260200191508051906020019080838360005b8381101561036c578082015181840152602081019050610351565b50505050905090810190601f1680156103995780820380516001836020036101000a031916815260200191505b5095505050505050600060405180830381600087803b1580156103bb57600080fd5b505af11580156103cf573d6000803e3d6000fd5b5050505050505056fea26469706673582212204b9874a2ca7e170cd0dcd8461ce157ba9a7b2ed80cf4a517d5325cfcb6fa3b3c64736f6c63430007030033",
  "immutableReferences": {},
  "source": "pragma solidity ^0.7.3;\n\n\nimport '@openzeppelin/contracts/token/ERC20/IERC20.sol';\nimport './FlashloanProvider.sol';\nimport './IFlashloanUser.sol';\n\ncontract ExampleFlashloanUser is IFlashloanUser {\n    event Log(string  message,uint  value);\n    function startFlashloan(\n        address flashloan,\n        uint amount,\n        address token\n    ) external {\n        FlashloanProvider(flashloan).executeFlashloan(\n          address(this),\n          amount,\n          token,\n          bytes('')\n        );\n    }\n\n    function flashloanCallback(\n        uint amount,\n        address token,\n        bytes memory data\n    ) override external{\n        // do something \n\n        // Reimburse borrowed tokens\n        // msg.sender provider\n        emit Log(\"callback is called\", amount);\n        IERC20(token).transfer(msg.sender,amount);\n    }\n}",
  "sourcePath": "/Users/darren/Documents/project/sol/defi_example/eattheblocks/defi-development-mastery/1-defi-building-blocks/12-flashloans/contracts/ExampleFlashloanUser.sol",
  "compiler": {
    "name": "solc",
    "version": "0.7.3+commit.9bfce1f6.Emscripten.clang"
  },
  "schemaVersion": "3.4.5",
  "updatedAt": "2022-04-10T12:44:47.473Z",
  "networkType": "ethereum",
  "devdoc": {
    "kind": "dev",
    "methods": {},
    "version": 1
  },
  "userdoc": {
    "kind": "user",
    "methods": {},
    "version": 1
  }
}