{
  "contractName": "FlashloanProvider",
  "abi": [
    {
      "inputs": [
        {
          "internalType": "address[]",
          "name": "_tokens",
          "type": "address[]"
        }
      ],
      "stateMutability": "nonpayable",
      "type": "constructor"
    },
    {
      "inputs": [
        {
          "internalType": "address",
          "name": "",
          "type": "address"
        }
      ],
      "name": "tokens",
      "outputs": [
        {
          "internalType": "contract IERC20",
          "name": "",
          "type": "address"
        }
      ],
      "stateMutability": "view",
      "type": "function"
    },
    {
      "inputs": [
        {
          "internalType": "address",
          "name": "callback",
          "type": "address"
        },
        {
          "internalType": "uint256",
          "name": "amount",
          "type": "uint256"
        },
        {
          "internalType": "address",
          "name": "_token",
          "type": "address"
        },
        {
          "internalType": "bytes",
          "name": "data",
          "type": "bytes"
        }
      ],
      "name": "executeFlashloan",
      "outputs": [],
      "stateMutability": "nonpayable",
      "type": "function"
    }
  ],
  "bytecode": "0x608060405234801561001057600080fd5b5060405161092d38038061092d8339818101604052602081101561003357600080fd5b810190808051604051939291908464010000000082111561005357600080fd5b8382019150602082018581111561006957600080fd5b825186602082028301116401000000008211171561008657600080fd5b8083526020830192505050908051906020019060200280838360005b838110156100bd5780820151818401526020810190506100a2565b50505050905001604052505050600160008190555060005b81518160ff16101561019857818160ff16815181106100f057fe5b602002602001015160016000848460ff168151811061010b57fe5b602002602001015173ffffffffffffffffffffffffffffffffffffffff1673ffffffffffffffffffffffffffffffffffffffff16815260200190815260200160002060006101000a81548173ffffffffffffffffffffffffffffffffffffffff021916908373ffffffffffffffffffffffffffffffffffffffff16021790555080806001019150506100d5565b5050610784806101a96000396000f3fe608060405234801561001057600080fd5b50600436106100365760003560e01c80635c26993c1461003b578063e486033914610140575b600080fd5b61013e6004803603608081101561005157600080fd5b81019080803573ffffffffffffffffffffffffffffffffffffffff16906020019092919080359060200190929190803573ffffffffffffffffffffffffffffffffffffffff169060200190929190803590602001906401000000008111156100b857600080fd5b8201836020820111156100ca57600080fd5b803590602001918460018302840111640100000000831117156100ec57600080fd5b91908080601f016020809104026020016040519081016040528093929190818152602001838380828437600081840152601f19601f8201169050808301925050505050505091929192905050506101ae565b005b6101826004803603602081101561015657600080fd5b81019080803573ffffffffffffffffffffffffffffffffffffffff16906020019092919050505061071b565b604051808273ffffffffffffffffffffffffffffffffffffffff16815260200191505060405180910390f35b60026000541415610227576040517f08c379a000000000000000000000000000000000000000000000000000000000815260040180806020018281038252601f8152602001807f5265656e7472616e637947756172643a207265656e7472616e742063616c6c0081525060200191505060405180910390fd5b60026000819055506000600160008473ffffffffffffffffffffffffffffffffffffffff1673ffffffffffffffffffffffffffffffffffffffff16815260200190815260200160002060009054906101000a900473ffffffffffffffffffffffffffffffffffffffff16905060008173ffffffffffffffffffffffffffffffffffffffff166370a08231306040518263ffffffff1660e01b8152600401808273ffffffffffffffffffffffffffffffffffffffff16815260200191505060206040518083038186803b1580156102fc57600080fd5b505afa158015610310573d6000803e3d6000fd5b505050506040513d602081101561032657600080fd5b81019080805190602001909291905050509050600073ffffffffffffffffffffffffffffffffffffffff168473ffffffffffffffffffffffffffffffffffffffff1614156103dc576040517f08c379a00000000000000000000000000000000000000000000000000000000081526004018080602001828103825260128152602001807f746f6b656e206973206e6f742076616c6964000000000000000000000000000081525060200191505060405180910390fd5b84811015610452576040517f08c379a000000000000000000000000000000000000000000000000000000000815260040180806020018281038252600e8152602001807f616d6f756e7420746f206869676800000000000000000000000000000000000081525060200191505060405180910390fd5b8173ffffffffffffffffffffffffffffffffffffffff1663a9059cbb87876040518363ffffffff1660e01b8152600401808373ffffffffffffffffffffffffffffffffffffffff16815260200182815260200192505050602060405180830381600087803b1580156104c357600080fd5b505af11580156104d7573d6000803e3d6000fd5b505050506040513d60208110156104ed57600080fd5b8101908080519060200190929190505050508573ffffffffffffffffffffffffffffffffffffffff1663a6fc41ab8686866040518463ffffffff1660e01b8152600401808481526020018373ffffffffffffffffffffffffffffffffffffffff16815260200180602001828103825283818151815260200191508051906020019080838360005b8381101561058f578082015181840152602081019050610574565b50505050905090810190601f1680156105bc5780820380516001836020036101000a031916815260200191505b50945050505050600060405180830381600087803b1580156105dd57600080fd5b505af11580156105f1573d6000803e3d6000fd5b50505050808273ffffffffffffffffffffffffffffffffffffffff166370a08231306040518263ffffffff1660e01b8152600401808273ffffffffffffffffffffffffffffffffffffffff16815260200191505060206040518083038186803b15801561065d57600080fd5b505afa158015610671573d6000803e3d6000fd5b505050506040513d602081101561068757600080fd5b81019080805190602001909291905050501461070b576040517f08c379a00000000000000000000000000000000000000000000000000000000081526004018080602001828103825260198152602001807f666c6173686c6f616e206e6f74207265696d627572736564200000000000000081525060200191505060405180910390fd5b5050600160008190555050505050565b60016020528060005260406000206000915054906101000a900473ffffffffffffffffffffffffffffffffffffffff168156fea2646970667358221220d0f80faae25ddb0e34d5eba92508dc30f2c3692428b5c857c3bc68ebe2fb1d3764736f6c63430007030033",
  "immutableReferences": {},
  "source": "\npragma solidity ^0.7.3;\n\n\nimport '@openzeppelin/contracts/token/ERC20/IERC20.sol';\nimport '@openzeppelin/contracts/utils/ReentrancyGuard.sol';\nimport './IFlashloanUser.sol';\n\ncontract FlashloanProvider is ReentrancyGuard{\n\n    mapping(address=> IERC20) public tokens;\n\n    constructor(address[] memory _tokens){\n        for(uint8 i =0;i<_tokens.length;i++){\n            tokens[_tokens[i]] = IERC20(_tokens[i]);\n        }\n    }\n\n    function executeFlashloan(\n        address callback,\n        uint amount,\n        address _token,\n        bytes memory data\n    ) nonReentrant() external{\n        IERC20 token = tokens[_token];\n\n        uint originalBalance = token.balanceOf(address(this));\n        require(address(_token) !=address(0),\"token is not valid\");\n        require(originalBalance >= amount,\"amount to high\");\n        // 转给 回调地址 \n        token.transfer(callback,amount);\n        // 固定地址\n        IFlashloanUser(callback).flashloanCallback(amount,_token,data);\n        require(\n            token.balanceOf(address(this))== originalBalance,\n            \"flashloan not reimbursed \"\n        );\n\n    }\n}\n\n\n",
  "sourcePath": "/Users/darren/Documents/project/sol/defi_example/eattheblocks/defi-development-mastery/1-defi-building-blocks/12-flashloans/contracts/FlashloanProvider.sol",
  "compiler": {
    "name": "solc",
    "version": "0.7.3+commit.9bfce1f6.Emscripten.clang"
  },
  "schemaVersion": "3.4.5",
  "updatedAt": "2022-04-10T10:18:53.197Z",
  "devdoc": {
    "kind": "dev",
    "methods": {},
    "version": 1
  },
  "userdoc": {
    "kind": "user",
    "methods": {},
    "version": 1
  }
}